:020000040800F2
:1000000000800120391C000835060008370600086A
:10001000390600083B0600083D0600080000000005
:100020000000000000000000000000003F06000883
:1000300041060008000000004306000845060008CD
:10004000891C0008891C0008891C0008891C0008FC
:10005000891C0008891C0008891C0008891C0008EC
:10006000891C0008891C0008891C0008891C0008DC
:10007000891C0008891C0008891C0008891C0008CC
:10008000891C0008891C0008891C00080000000069
:10009000000000000000000000000000891C0008B3
:1000A000891C0008891C0008891C0008891C00089C
:1000B000891C0008891C0008891C0008891C00088C
:1000C000891C0008891C0008891C0008891C00087C
:1000D000891C0008891C0008891C00080000000019
:1000E000891C0008891C0008891C00080000000009
:1000F000000000000000000000000000891C000853
:1001000000000000891C0008891C0008891C0008E8
:1001100000000000000000000000000000000000DF
:10012000891C0008891C0008891C0008891C00081B
:10013000891C000800000000000000000000000012
:10014000000000000000000000000000891C000802
:10015000891C0008891C0008891C0008891C0008EB
:10016000891C0008891C0008000000000000000035
:10017000000000000000000000000000000000007F
:1001800000000000891C00080000000000000000C2
:04019000891C0008BE
:1001940053B94AB9002908BF00281CBF4FF0FF31EA
:1001A4004FF0FF3000F00CB8ADF1080C6DE904CE4F
:1001B40001F096FDDDF804E0DDE9022304B07047A8
:1001C400704700BF10B5054C237833B9044B13B105
:1001D4000448AFF300800123237010BD0C000020FD
:1001E40000000000A01F000808B5034B1BB1034921
:1001F4000348AFF3008008BD000000001000002099
:10020400A01F000810B586B004464FF0FF330293D8
:10021400012301930DF117020092D022EE21006810
:1002240000F09EFF9DF81720227108B906B010BD9A
:100234000220FBE700B585B000684FF0FF3302935E
:1002440004230193B62300930123E022EE2100F05E
:10025400D5FE10B905B05DF804FB0220FAE72DE9DC
:10026400F04786B0074692461D468DF817104FF0AA
:10027400FF39CDF80890012601960DF11708CDF845
:1002840000803346F222EE21006800F0B7FE0446F7
:10029400AD0045EA4A156DB29DF838302B438DF810
:1002A4001730CDF808900196CDF800803346F4223B
:1002B400EE21386800F0A2FE0443E4B29DF8403019
:1002C4009B009DF83C2043EA42138DF81730CDF88B
:1002D40008900196CDF800803346F522EE21386867
:1002E40000F08CFE204310F0FF0002D106B0BDE800
:1002F400F0870220FAE710B584B004460160FFF7E6
:1003040081FF18B92379602B02D0012004B010BDFD
:100314002046FFF78FFF0028F8D101210291032323
:100324000193009305222046FFF799FFEEE70000B2
:1003340030B58BB00024059406940794089409946E
:100344000194224B1A6B42F004021A631A6B02F0F6
:1003540004020192019A02941A6B42F080021A6319
:100364001A6B02F080020292029A03941A6B42F012
:1003740001021A631A6B02F001020392039A0494B5
:100384001A6B42F002021A631B6B03F0020304931C
:10039400049B0F4D22462021284600F0FFFA4FF41B
:1003A400005305934FF404130693079405A90948D1
:1003B40000F010FA20230593012306930794089470
:1003C40005A9284600F006FA0BB030BD00380240FB
:1003D400000002400008024072B6FEE708B50A4871
:1003E4000A4B03600A4B436000238360C3604FF4ED
:1003F4008042026143618361C361036200F020FDB6
:1004040000B908BDFFF7E8FF6C000020005400406D
:10041400A086010008B50A480A4B03604FF4E13393
:10042400436000238360C36003610C2242618361E3
:10043400C36101F0CFFB00B908BDFFF7CDFF00BFDA
:10044400280000200044004000B595B0302200216F
:1004540008A801F018FC0023039304930593069362
:10046400079301931F4A116C41F080511164126C7F
:1004740002F080520192019A02931B490A6822F405
:10048400404242F400420A600A6802F44042029286
:10049400029A0221089101220B9210220C920E91D1
:1004A4000F9310924FF4A87311930423129307230C
:1004B400139308A800F0C6FF80B90F230393022109
:1004C4000491002305934FF480520692079303A8E6
:1004D40001F022FA20B915B05DF804FBFFF77CFFA8
:1004E400FFF77AFF003802400070004000B58DB07D
:1004F40000F0DAF8FFF7A8FFFFF71AFFFFF76EFF27
:10050400FFF788FF024901A8FFF7F5FEFEE700BFE9
:100514006C00002000B583B0002100910C4B5A6C94
:1005240042F480425A645A6C02F480420092009A67
:1005340001911A6C42F080521A641B6C03F08053D0
:100544000193019B072000F00FF903B05DF804FB51
:100554000038024030B589B0002303930493059317
:10056400069307930268144B9A4201D009B030BD38
:1005740000250195114C236B43F002032363236B85
:1005840003F002030193019B4FF44073039312237E
:100594000493032306930423079303A9084800F054
:1005A40019F90295236C43F400132364236C03F4B8
:1005B40000130293029BD9E7005400400038024024
:1005C4000004024000B589B000230393049305930B
:1005D400069307930268144B9A4202D009B05DF85F
:1005E40004FB0021019103F5FA331A6C42F4003242
:1005F4001A641A6C02F400320192019A02911A6B85
:1006040042F001021A631B6B03F001030293029B85
:100614000C230393022304930723079303A903489A
:1006240000F0D8F8DAE700BF0044004000000240C0
:10063400FEE7FEE7FEE7FEE7FEE770477047704718
:1006440008B500F04BF808BD034AD2F8883043F4EB
:100654007003C2F88830704700ED00E010B504461E
:100664000E4B1A784FF47A73B3FBF2F30C4A10680A
:10067400B0FBF3F000F09AF868B90F2C01D901200F
:100684000AE0002221464FF0FF3000F07FF8054BCE
:100694001C60002000E0012010BD00BF0400002009
:1006A400000000200800002008B50B4B1A6842F433
:1006B40000721A601A6842F480621A601A6842F47E
:1006C40080721A60032000F04FF80020FFF7C6FF85
:1006D400FFF720FF002008BD003C0240034A1168D8
:1006E400034B1B780B441360704700BFC00000200D
:1006F40004000020014B1868704700BFC0000020B0
:10070400002808DB0901C9B200F1604000F561402E
:1007140080F80013704700F00F000901C9B2014BC3
:100724001954704714ED00E000B500F00700C0F163
:10073400070CBCF1040F28BF4FF0040C031D062B5B
:100744000FD9C31E4FF0FF3E0EFA0CF021EA000150
:1007540099400EFA03FE22EA0E0241EA02005DF815
:1007640004FB0023EEE70000074AD36823F4E063A8
:100774001B041B0C000200F4E060034343F0BF635E
:1007840043F40033D360704700ED00E010B5044635
:10079400054BD868C0F30220FFF7C6FF0146204688
:1007A400FFF7AEFF10BD00BF00ED00E00138B0F16F
:1007B400807F0BD24FF0E0235861054AF02182F884
:1007C40023100020986107221A61704701207047A6
:1007D40000ED00E000230F2B00F2D78070B582B04B
:1007E40065E085684FEA430E032404FA0EF425EA13
:1007F4000405CC6804FA0EF42C438460446824EAAB
:1008040002044A68C2F300129A40224342605CE048
:10081400DC08083450F8242003F00705AD004FF03D
:100824000F0E0EFA05FE22EA0E0E0A69AA4042EAEB
:100834000E0240F824205CE0042200E0002202FAC8
:100844000EF22A430234514D45F82420504A94684C
:100854006FEA0C0224EA0C054E6816F4801F01D0DE
:100864004CEA04054A4CA560E46802EA04054E68B3
:1008740016F4001F01D04CEA0405454CE560646899
:1008840002EA04054E6816F4003F01D04CEA040560
:100894003F4C6560246822404D6815F4803F01D0C8
:1008A4004CEA04023A4C226001330F2B6BD801222C
:1008B4009A400C6804EA020C32EA0404F4D14C684D
:1008C40004F00304013C012C8BD94A6802F00302B2
:1008D400032A09D0C4685D000322AA4024EA020462
:1008E4008A68AA402243C2604A6802F00302022ACC
:1008F4008ED004684FEA430E032202FA0EF224EA71
:1009040002044A6802F0030202FA0EF22243026071
:100914004A6812F4403FC7D0002201921D4A546C29
:1009240044F480445464526C02F480420192019A6B
:100934009C08A51C154A52F8255003F0030E4FEAF3
:100944008E0E0F2202FA0EF225EA0205124A904296
:100954003FF474AF02F5806290420ED002F58062DB
:1009640090420CD002F5806290420AD002F5806277
:1009740090423FF461AF072261E701225FE7022260
:100984005DE703225BE702B070BD704700380140A9
:10099400003C014000380240000002400AB181617D
:1009A400704709048161704703685A6912F4806FC3
:1009B40001D1002070476FF480625A610023036301
:1009C400202280F83D2080F83E30026C42F0040280
:1009D400026480F83C30012070472DE9F04107465D
:1009E4000D4690461E4624E0FFF784FE069BC01A7F
:1009F400B04200D8EEB900233B63202287F83D20A3
:100A040087F83E303A6C42F020023A6487F83C3072
:100A140001201EE03B689C6925EA040C1FFA8CFC4B
:100A2400BCFA8CFC4FEA5C1CE04511D1B6F1FF3FE7
:100A3400DAD1C5F30743012BECD13B685B6925EAA6
:100A4400030C1FFA8CFCBCFA8CFC4FEA5C1CEBE731
:100A54000020BDE8F0812DE9F04105460E46174619
:100A640098463DE01A6842F400721A602B686FF4ED
:100A740080625A6100232B63202285F83D2085F88B
:100A84003E302A6C42F004022A6485F83C3001208E
:100A940034E0FFF72FFEA0EB0800B84200D8FFB9FE
:100AA40000232B63202285F83D2085F83E302A6CF4
:100AB40042F020022A6485F83C3001201EE02B68B5
:100AC4009C6926EA0404A4B2003C18BF0124A4B122
:100AD4002B685A6912F4806FC4D1B7F1FF3FD8D1A3
:100AE400C6F30743012BEAD12B685C6926EA0404A8
:100AF400A4B2003C18BF0124E9E70020BDE8F0815E
:100B040070B504460D46164623685B6913F0800FE2
:100B14001CD12046FFF748FFD0B9B5F1FF3FF3D011
:100B2400FFF7E8FD801BA84201D8002DECD100237B
:100B34002363202284F83D2084F83E30226C42F066
:100B44002002226484F83C30012000E0002070BDC3
:100B54000120FCE72DE9F04385B004460D4691469B
:100B64001F46DDF830800D9E0368196841F48071DA
:100B740019600096434600224FF00111FFF72DFF44
:100B840060B9236805F0FE051D61334642462649D7
:100B94002046FFF760FF68B1012008E023681B6866
:100BA40013F4807F02D04FF400732364032005B054
:100BB400BDE8F0830023039323685A6903929B6979
:100BC4000393039B324641462046FFF799FF30B911
:100BD400012F0FD123685FFA89F61E61E7E7236CC2
:100BE400042B01D00120E2E72268136843F4007368
:100BF4001360F7E723684FEA19221A613246414627
:100C04002046FFF77DFF20B923685FFA89F61E614D
:100C1400CDE7236C042B01D00120C8E722681368B8
:100C240043F400731360F7E7020001002DE9F04775
:100C340084B004460D46164699460C9FDDF8348070
:100C44000268136843F4806313600368196841F40D
:100C540080711960CDF800803B4600224FF00111ED
:100C6400FFF7BBFE70B95FFA85FA236805F0FE054D
:100C74001D6143463A4641492046FFF7ECFE68B100
:100C8400012008E023681B6813F4807F02D04FF42E
:100C940000732364032004B0BDE8F08700230393AA
:100CA40023685A6903929B690393039B424639461E
:100CB4002046FFF725FF80B9B9F1010F18D1236849
:100CC400F6B21E61424639462046FFF719FF68B363
:100CD400236C042B24D00120DDE7236C042B01D0EA
:100CE4000120D8E72268136843F400731360F7E720
:100CF4002368320A1A61424639462046FFF700FF4C
:100D040018B92368F6B21E61DCE7236C042B01D00A
:100D14000120C0E72268136843F400731360F7E707
:100D24002268136843F400731360D4E722681368DD
:100D340043F480731360CDF800803B4600224FF0EB
:100D440001112046FFF749FE68B922684AF0010301
:100D5400136143463A4609492046FFF77CFE0028C2
:100D640099D0012097E723681B6813F4807F02D091
:100D74004FF40073236403208DE700BF02000100D9
:100D840070B504460D46164623685B6913F0040FDC
:100D94001CD12046FFF708FED0B9B5F1FF3FF3D0D0
:100DA400FFF7A8FC801BA84201D8002DECD100233A
:100DB4002363202284F83D2084F83E30226C42F0E4
:100DC4002002226484F83C30012000E0002070BD41
:100DD4000120FCE770B505460C4616462B68596998
:100DE40011F0400F29D1596911F0100F15D1FFF7F7
:100DF40081FC801BA04201D8002CEFD100232B637F
:100E0400202285F83D2085F83E302A6C42F02002ED
:100E14002A6485F83C30012070BD6FF010025A61DD
:100E240000232B63202285F83D2085F83E302A6C70
:100E34002A6485F83C300120EEE70020ECE700004E
:100E4400002800F0CC8070B5044690F83D30002BAB
:100E540077D0242384F83D302268136823F00103FB
:100E640013602268136843F4004313602268136814
:100E740023F40043136000F005FE62685A4B9A4263
:100E840064D85A4B98428CBF00230123002B40F0B6
:100E9400A8805749A1FB00318B0C25686A6822F0B1
:100EA4003F0242EA91426A6021680A6A22F03F02E4
:100EB40066684D4DAE424FD8013313430B6221682F
:100EC400CA6922F44F4222F0FF026568464B9D42F4
:100ED4004CD8431E6D00B3FBF5F3013340F6FC70B0
:100EE400034278D0C3F30B031A43CA6121680B6829
:100EF40023F0C003E269206A024313430B602168B4
:100F04008B6823F4034323F0FF032269E068024360
:100F140013438B602168CB6823F0FF036269A069E7
:100F240002431343CB602268136843F00103136048
:100F340000202064202384F83D30206384F83E00A0
:100F440070BD80F83C30FFF705FB82E7294B9842DF
:100F54008CBF0023012399E74FF4967505FB03F337
:100F6400254DA5FB03539B090133A6E7A668BEB92B
:100F7400431E05EB450CB3FBFCF30133C3F30B0336
:100F8400B3FA83F35B0943BBC6B9431E05EB4505BE
:100F9400B3FBF5F30133C3F30B0343F40043A3E7BB
:100FA400431E05EB850C0CEB8C0CB3FBFCF30133FB
:100FB400C3F30B03B3FA83F35B09E4E7431E05EBC6
:100FC400850505EB8505B3FBF5F30133C3F30B038B
:100FD40043F4404388E7042386E7012384E70120A0
:100FE40070470120ACE700BFA08601007F841E008B
:100FF40083DE1B43FF083D00D34D62102DE9F0430F
:1010040083B004460F46904699460C9EFFF772FB48
:10101400054694F83D00C0B2202803D0022003B056
:10102400BDE8F0830095192301224B492046FFF7C0
:10103400D4FC002840F0898094F83C30012B00F067
:101044008680012384F83C3023681A6812F0010F6B
:1010540003D11A6842F001021A602268136823F46B
:1010640000631360212384F83D30402384F83E302C
:10107400002323640A9B6362BDF82C306385638D6F
:101084002385364BE362019500964B46424639462A
:101094002046FFF75FFD00285BD1238D002B35D060
:1010A4002A4631462046FFF72BFD20BB626A23689F
:1010B40012781A61626A531C6362218D013989B204
:1010C4002185638D9BB2013B9BB26385236858697C
:1010D40010F0040FE1D00029DFD052781A61636A5E
:1010E40001336362238D013B2385638D9BB2013BF6
:1010F4009BB26385D1E7236C042B01D001208EE7DA
:101104002268136843F400731360F7E72A463146F4
:101114002046FFF735FE50B1236C042B01D001208B
:101124007DE72268136843F400731360F7E72268CD
:10113400136843F400731360202384F83D300023C4
:1011440084F83E3084F83C3069E7022067E70220E7
:1011540065E7012063E700BF020010000000FFFF05
:101164002DE9F04387B004460F4690469946109EF9
:10117400FFF7C0FA054694F83D00C0B2202804D019
:101184000227384607B0BDE8F083009519230122F1
:1011940088492046FFF721FC002840F0438194F859
:1011A4003C30012B00F04081012384F83C3023685B
:1011B4001A6812F0010F03D11A6842F001021A6092
:1011C4002268136823F400631360222384F83D30FB
:1011D400402384F83E30002323640E9B6362BDF8F1
:1011E4003C306385638D2385734BE36201950096E0
:1011F4004B46424639462046FFF718FD074600286D
:1012040040F01481238D5BB9029323685A690292DA
:101214009A690292029A1A6842F400721A6075E09E
:10122400012B0AD0022B1AD00023059323685A6994
:1012340005929B690593059B68E02268136823F473
:10124400806313600023039323685A6903929A69A5
:101254000392039A1A6842F400721A6056E02268F4
:10126400136823F4806313602268136843F40063F3
:1012740013600023049323685A6904929B690493BE
:10128400049B43E02A4631462046FFF7A3FD00288D
:1012940040F0CE8023681A69636A1A70636A013366
:1012A4006362238D013B2385638D9BB2013B9BB21B
:1012B40063852BE000953346002240492046FFF722
:1012C4008CFB002840F0B6802268136843F4007356
:1012D400136023681A69636A1A70626A531C636232
:1012E400238D013B2385638D9BB2013B9BB26385B8
:1012F40023681B695370636A01336362238D013B66
:101304002385638D9BB2013B9BB26385238D002BA8
:101314007FD0032B54D8012BB4D0022BCAD0009514
:101324003346002225492046FFF757FB002840F0AA
:1013340083802268136823F48063136023681A6926
:10134400636A1A70636A01336362238D013B2385E8
:10135400638D9BB2013B9BB26385009533460022AB
:1013640016492046FFF739FB002867D12268136825
:1013740043F40073136023681A69636A1A70626A1B
:10138400531C6362238D013B2385638D9BB2013B18
:101394009BB2638523681B695370636A013363627C
:1013A400238D013B2385638D9BB2013B9BB26385F7
:1013B400ACE700BF020010000000FFFF04000100C2
:1013C4002A4631462046FFF705FD002838D1236818
:1013D4001A69636A1A70626A531C6362238D013B43
:1013E4002385638D9BB2013B9BB263852368596956
:1013F40011F0040F8AD01B695370636A013363626E
:10140400238D013B2385638D9BB2013B9BB2638596
:101414007CE7202384F83D30002384F83E3084F8B0
:101424003C30AEE60227ACE60227AAE60127A8E68E
:101434000127A6E60127A4E60127A2E60127A0E6E4
:1014440001279EE6002800F0E08170B582B00446D2
:10145400036813F0010F3BD09F4B9B6803F00C0310
:10146400042B2CD09C4B9B6803F00C03082B21D03D
:101474006368B3F5803F4FD0B3F5A02F52D0964B9D
:101484001A6822F480321A601A6822F480221A60E0
:101494006368002B50D0FFF72DF905468E4B1B686F
:1014A40013F4003F14D1FFF725F9401B6428F5D944
:1014B4000320B1E1884B5B6813F4800FD8D0864BCE
:1014C4001B6813F4003F03D06368002B00F09F8176
:1014D400236813F0020F54D07F4B9B6813F00C0F5A
:1014E4003ED07D4B9B6803F00C03082B33D0E3689C
:1014F400002B68D0794B01221A60FFF7FBF80546F0
:10150400754B1B6813F0020F54D1FFF7F3F8401B1F
:101514000228F5D903207FE16F4A136843F480332E
:101524001360B5E76C4B1A6842F480221A601A689B
:1015340042F480321A60ABE7FFF7DCF80546664BED
:101544001B6813F4003FC3D0FFF7D4F8401B642892
:10155400F5D9032060E1604B5B6813F4800FC6D1BA
:101564005D4B1B6813F0020F03D0E368012B40F0BE
:101574005081594A136823F0F803216943EAC103EF
:101584001360236813F0080F42D063696BB3534BA5
:101594000122C3F8802EFFF7ADF805464E4B5B6F72
:1015A40013F0020F34D1FFF7A5F8401B0228F5D938
:1015B400032031E1484A136823F0F803216943EA20
:1015C400C1031360DDE7454B00221A60FFF792F870
:1015D4000546414B1B6813F0020FD2D0FFF78AF87F
:1015E400401B0228F5D9032016E13C4B0022C3F826
:1015F400802EFFF77FF80546374B5B6F13F0020F21
:1016040006D0FFF777F8401B0228F5D9032003E141
:10161400236813F0040F77D02F4B1B6C13F0805FFB
:1016240033D1002301932C4B1A6C42F080521A647C
:101634001B6C03F080530193019B0125284B1B680D
:1016440013F4807F23D0A368012B34D0052B38D02A
:10165400214B1A6F22F001021A671A6F22F004025A
:101664001A67A368002B3DD0FFF744F806461A4BCF
:101674001B6F13F0020F46D1FFF73CF8801B41F2B9
:1016840088339842F3D90320C6E00025D6E7144AEC
:10169400136843F480731360FFF72CF80646104B6D
:1016A4001B6813F4807FCED1FFF724F8801B022837
:1016B400F5D90320B0E0084A136F43F00103136720
:1016C400CFE7054B1A6F42F004021A671A6F42F013
:1016D40001021A67C5E700BF003802400000474214
:1016E40000700040FFF706F80646524B1B6F13F0DC
:1016F400020F08D0FEF7FEFF801B41F288339842A8
:10170400F3D9032088E0EDB9A369002B00F08380AE
:10171400484A926802F00C02082A51D0022B17D0D2
:10172400454B00221A66FEF7E5FF0446414B1B6851
:1017340013F0007F42D0FEF7DDFF001B0228F5D92D
:10174400032069E03B4A136C23F080531364DBE706
:10175400394B00221A66FEF7CDFF0546354B1B6850
:1017640013F0007F06D0FEF7C5FF401B0228F5D911
:10177400032051E0E369226A1343626A43EA821355
:10178400A26A5208013A43EA0243E26A43EA026364
:10179400284A5360284B01221A66FEF7ABFF044621
:1017A400244B1B6813F0007F06D1FEF7A3FF001B38
:1017B4000228F5D903202FE000202DE000202BE0A3
:1017C400012B2BD01B4B5B6803F48001E26991422F
:1017D40026D103F03F02216A8A4223D1616A47F687
:1017E400C0721A40B2EB811F1ED103F44031A26AC9
:1017F4005208013AB1EB024F18D103F07063E26A68
:10180400B3EB026F14D1002006E0012070470120E1
:1018140002E0012000E0002002B070BD0120FBE7DF
:101824000120F9E70120F7E70120F5E70120F3E7BC
:101834000120F1E7003802400000474208B5334B6D
:101844009B6803F00C03042B5BD0082B5BD12F4B5C
:101854005A6802F03F025B6813F4800F2CD02B4BC4
:101864005868C0F388104FEA401CBCEB000C6EEBC8
:101874000E0E4FEA8E1343EA9C634FEA8C11B1EBD0
:101884000C0163EB0E03DB0043EA5173C90011EB57
:10189400000C43F10003590200234FEA4C2041EAB3
:1018A400DC51FEF775FC194B5B68C3F3014301334C
:1018B4005B00B0FBF3F027E0144B5868C0F38810CA
:1018C4004FEA401CBCEB000C6EEB0E0E4FEA8E137D
:1018D40043EA9C634FEA8C11B1EB0C0163EB0E03FA
:1018E400DB0043EA5173C90011EB000C43F1000320
:1018F400990200234FEA8C2041EA9C51FEF748FCF0
:10190400D1E7034800E0034808BD00BF00380240A7
:1019140000127A000024F400002800F09B8070B5C7
:101924000D4604464F4B1B6803F007038B4208D255
:10193400CBB24C4A1370136803F007038B4240F098
:101944008B80236813F0020F17D013F0040F04D018
:10195400454A936843F4E0539360236813F0080FF7
:1019640004D0414A936843F4604393603E4A9368C9
:1019740023F0F003A1680B439360236813F0010F75
:1019840032D06368012B21D09A1E012A25D9364A08
:10199400126812F0020F61D033498A6822F0030200
:1019A40013438B60FEF7A6FE06462F4B9B6803F09D
:1019B4000C036268B3EB820F16D0FEF79BFE801B0C
:1019C40041F288339842F0D9032042E0264A126853
:1019D40012F4003FE0D101203BE0234A126812F0E8
:1019E400007FD9D1012034E01E4B1B6803F00703AC
:1019F400AB4207D9EAB21B4B1A701B6803F007030A
:101A0400AB422DD1236813F0040F06D0164A936815
:101A140023F4E053E1680B439360236813F0080F49
:101A240007D0114A936823F46043216943EAC10350
:101A34009360FFF703FF0C4B9B68C3F303130B4A3C
:101A4400D35CD8400A4B18600A4B1868FEF706FEB0
:101A5400002070BD012070470120FAE70120F8E75B
:101A64000120F6E7003C024000380240C01F000895
:101A74000000002008000020014B1868704700BFD8
:101A84000000002008B5FFF7F7FF044B9B68C3F381
:101A94008223034AD35CD84008BD00BF003802400B
:101AA400B81F000808B5FFF7E7FF044B9B68C3F3B2
:101AB4004233034AD35CD84008BD00BF003802401B
:101AC400B81F000810B504460268136923F4405394
:101AD400C1680B431361836802691A4343691A435B
:101AE400C3691A430168CB6823F4164323F00C033B
:101AF4001343CB600268536923F4407381690B4339
:101B040053610368314A934206D002F580629342DE
:101B140002D0FFF7B7FF01E0FFF7C4FFE369B3F5B5
:101B2400004F29D00021031849411B1841F100013D
:101B3400C90041EA5371DB00181863684FEA830255
:101B44004FEA937341F10001FEF722FB204AA2FB06
:101B540000314909642303FB11031B013233A2FB47
:101B640003235B0903F0F00202EB011203F00F03FD
:101B7400216813448B6010BD0023021843EB03015A
:101B8400121841F10001C90041EA5271D200101843
:101B940041F10001626892185B41FEF7F9FA0C4AC0
:101BA400A2FB00314909642303FB1103DB00323338
:101BB400A2FB03235B095A0002F4F87202EB011240
:101BC40003F00703216813448B60D4E7001001403D
:101BD4001F85EB5158B310B5044690F83D300BB354
:101BE400242384F83D302268D36823F40053D3605F
:101BF4002046FFF767FF2268136923F490431361BB
:101C04002268536923F02A0353612268D36843F49A
:101C14000053D36000202064202384F83D3084F8EE
:101C24003E3010BD80F83C30FEF7CCFCD8E70120F4
:101C340070470000DFF834D00D480E490E4A0023E7
:101C440002E0D458C4500433C4188C42F9D30B4A6C
:101C54000B4C002301E013600432A242FBD3FEF7D5
:101C6400F3FC00F019F8FEF741FC704700800120F6
:101C7400000000200C000020E01F00080C000020E1
:101C8400C4000020FEE702440346934200D170479B
:101C940003F8011BF9E7000070B50D4D0D4C641BF2
:101CA400A4100026A64209D10B4D0C4C00F076F985
:101CB400641BA4100026A64205D170BD55F8043B50
:101CC40098470136EEE755F8043B98470136F2E7AA
:101CD400D81F0008D81F0008D81F0008DC1F000800
:101CE4002DE9F047089D0C46002B4ED194468C45B7
:101CF4008646B2FA82F262D94AB1C2F12003914017
:101D040020FA03F30CFA02FC194300FA02FE4FEA2C
:101D14001C471FFA8CF6B1FBF7F44FEA1E4307FB8E
:101D2400141143EA014304FB06F199420AD91CEB5E
:101D3400030304F1FF3080F01381994240F21081D3
:101D4400023C6344591A1FFA8EF3B1FBF7F007FB08
:101D5400101143EA014300FB06F69E420AD91CEB2C
:101D6400030300F1FF3180F0FD809E4240F2FA80CF
:101D7400634402389B1B40EA044000211DB1D34058
:101D84000022C5E90032BDE8F0878B4205D90DB1C8
:101D9400C5E9000100210846F5E7B3FA83F10029FB
:101DA40046D1A34202D39042C0F0F180861A64EB7C
:101DB40003030120002DE6D0C5E90063E3E7002A10
:101DC40040F09180A1EB0C044FEA1C481FFA8CF7F9
:101DD4000121B4FBF8F64FEA1E4308FB164443EA1C
:101DE400044307FB06F0984208D91CEB030306F1F1
:101DF400FF3402D2984200F2CE8026461C1A1FFA03
:101E04008EF3B4FBF8F008FB104443EA044300FBF0
:101E140007F79F4208D91CEB030300F1FF3402D2F9
:101E24009F4200F2B1802046DB1B40EA0640A5E752
:101E3400C1F120068B4022FA06F71F4320FA06FC64
:101E440004FA01F343EA0C03F44000FA01F8380CF5
:101E54004FEA1349B4FBF0FE1FFA87FC00FB1E4453
:101E640049EA04440EFB0CF9A14502FA01F20AD92D
:101E74003C190EF1FF3A80F08580A14540F2828042
:101E8400AEF1020E3C44A4EB09041FFA83F9B4FB3F
:101E9400F0F300FB134449EA044403FB0CFCA4459F
:101EA40007D93C1903F1FF3068D2A44566D9023B37
:101EB4003C4443EA0E40A0FB0293A4EB0C049C4276
:101EC400CE469C4652D34FD055B1B8EB0E0364EBCB
:101ED4000C0404FA06F6CB40CC401E43C5E900646A
:101EE4000021BDE8F087C2F1200320FA03F10CFAC7
:101EF40002FC24FA03F394400C434FEA1C4800FA12
:101F040002FE1FFA8CF7B3FBF8F008FB1031230C28
:101F140043EA014300FB07F1994208D91CEB030390
:101F240000F1FF362CD299422AD9023863445B1A55
:101F3400A4B2B3FBF8F108FB113344EA034401FBF8
:101F440007F3A34208D91CEB040401F1FF3613D2B2
:101F5400A34211D902396444E41A41EA004138E742
:101F64000446EFE6084605E7C845ADD2B9EB020ED4
:101F740063EB070C0138A7E73146EDE7034698E722
:101F84003046D4E7D6467EE7634402384CE706463B
:101F9400234608460EE7023E63442FE7F8B500BF28
:101FA400F8BC08BC9E467047F8B500BFF8BC08BC36
:041FB4009E4670478E
:101FB800000000000102030400000000000000000F
:081FC8000102030406070809E9
:081FD00014FDFF7F0100000079
:041FD800ED0100080F
:041FDC00C90100082F
:0C1FE0000024F4000100000010000000CC
:0400000508001C399A
:00000001FF
